:0400000073EF08F0A2
:08000800046ED8CF05F0E0CF33
:1000100006F00001E9CF0CF0EACF07F0E1CF08F0DD
:10002000E2CF09F0D9CF0AF0DACF0BF0F3CF12F01C
:10003000F4CF13F0FACF14F0F5CF15F0F6CF16F099
:10004000F7CF17F000C00EF001C00FF002C010F0A3
:1000500003C011F09DA230EF00F09EB257EF00F008
:100060000EC000F00FC001F010C002F011C003F08C
:100070000CC0E9FF07C0EAFF078E08C0E1FF09C016
:10008000E2FF0AC0D9FF0BC0DAFF12C0F3FF13C0B2
:10009000F4FF14C0FAFF15C0F5FF16C0F6FF17C035
:1000A000F7FF045006C0E0FF05C0D8FF10001F2A6C
:1000B000D8B4202A9E9230EF00F00D0A0D0A434377
:1000C000532043414E205452414E53464552204204
:1000D0004D4532383020444154410D0A00000D0A8C
:1000E00052756E6E696E672E2E2E00000D0A5465D5
:1000F0006D70657261747572652053485437312094
:100100003D20256633000D0A48756D696469747970
:10011000205348543731203D2025663300000D0A16
:10012000474F543A20425546463D25552049443DC7
:10013000254C55204C454E3D2555204F56463D25D6
:100140005520000046494C543D2555205254523DFF
:100150002555204558543D255520494E563D255599
:1001600000000D0A2020202044415441203D200061
:100170000D0A4641494C206F6E20474554440D0AF4
:1001800000000D0A5055542025553A2049443D257C
:100190004C55204C454E3D25552000005052493DC0
:1001A0002555204558543D2555205254523D25553E
:1001B0000D0A20202044415441203D2000000D0A1A
:1001C0005055542025553A2049443D254C55204C46
:1001D000454E3D25552000000D0A4641494C206FF3
:1001E0006E20505554440D0A00000900F5520DE0F0
:1001F000F6CF4FF0F7CF50F0F5509EA8FED7AD6E7A
:100200004FC0F6FF50C0F7FFF0D712004F38700B09
:10021000006ED89000361F0E6F1400106F6E6ECFF8
:1002200000F0003A0030070B4F5CF9E11200C00EFD
:1002300070140409706E3F0E7014706EF80E711415
:100240000209716EC70E71142809716E719C718E4E
:10025000F80E72140509726E729CCBEF01F060C04B
:1002600067F05FC066F0655352E066C0E9FF67C0A3
:10027000EAFF61C0EFFF6651D8B46707660766C042
:10028000E9FF67C0EAFF62C0EFFF6651D8B46707B5
:10029000660766C0E9FF67C0EAFF6351030BEF6EB4
:1002A00066C0E9FF67C0EAFF63C000F000360036B1
:1002B0000036F80E00160050E00BEF10EF6E66C02F
:1002C000E9FF67C0EAFFEF500809EF6E6651D8B446
:1002D0006707660766C0E9FF67C0EAFF63C000F012
:1002E000003A0032070E00160050070BEF6E66C092
:1002F000E9FF67C0EAFF64C000F000360036003650
:10030000F80E00160050F80BEF10EF6E3FD066C0ED
:10031000E9FF67C0EAFFEF6A6651D8B4670766076E
:1003200066C0E9FF67C0EAFFEF6A6651D8B46707A5
:10033000660766C0E9FF67C0EAFF61C000F0003AE7
:100340000036E00E00160050E00BEF6E6651D8B498
:100350006707660766C0E9FF67C0EAFF61C000F093
:100360000032003200321F0E001600501F0BEF6EDD
:1003700066C0E9FF67C0EAFF62C000F0003A0036DD
:10038000E00E00160050E00BEF10EF6E1200040EAE
:100390004F6E3CDF4CD7606A9F0E6014606E6084C5
:1003A00060CF50FF739A7398739E739C0F0E606FAB
:1003B0001B0E5F6E646B636B626B616B010E656F2E
:1003C0004EDF0F0E606F030E5F6E646B636B626BCC
:1003D000616B010E656F43DF0F0E606F070E5F6E7E
:1003E000646B636B626B616B010E656F38DF0F0EC0
:1003F000606F1F0E5F6E646B636B626B616B010EEF
:10040000656F2DDF0F0E606F0B0E5F6E646B636B9D
:10041000626B616B010E656F22DF0F0E606F5F6EA6
:10042000646B636B626B616B010E656F18DF0F0E9F
:10043000606F130E5F6E646B636B626B616B010EBA
:10044000656F0DDF0F0E606F170E5F6E646B636B71
:10045000626B616B010E656F02DF9350FB0B080945
:10046000936E4F6AD3DEBDEF08F0EA6A500EE96E74
:10047000EF500DE0060E016E006A002EFED7012E31
:10048000FBD77B0E006E002EFED7EF2EF3D71200A7
:10049000938E8A9C939C00D000D000008A8C939C01
:1004A00000D000D000008A9E939E00D000D00000B3
:1004B0008A9C939C020E006E002EFED700D0000096
:1004C0008A8C939C00D000D00000938E00D000D086
:1004D00000008A9C939C1200938E8A9C939C020E2F
:1004E000006E002EFED700D000004F6A4F50080863
:1004F00012E38A8C939C020E006E002EFED700D071
:1005000000008A9C939C020E006E002EFED700D045
:1005100000004F2AEBD7BCDF8FEF02F0DDD7140EBF
:10052000506EA3DFC3EF08F0800E646F060E006EFE
:10053000002EFED70000636B6351070815E38A9C09
:10054000939C6251641502E0938E02D08A9E939E22
:1005500000D000D000008A8C939C00D000D0000016
:10056000D8906433632BE8D78A9C939C00D000D04A
:100570000000938E659181BE65818A8C939C00D02A
:1005800000D000008A9C939C000E65B1010E016EA4
:100590001200938E8A9C939C00D000D00000636B65
:1005A000626B6351750810E303E162512F080CE39D
:1005B000938E81AE09D0100E006E002EFED7000083
:1005C000622BD8B4632BEDD71200646B636B626B44
:1005D0006251070813E3D890633764378A8C939C81
:1005E00000D000D00000938E81AE01D063818A9C40
:1005F000939C00D000D00000622BEAD78A9E939E85
:1006000000D000D000008A8C939C020E006E002E59
:10061000FED700D000008A9C939C00D000D0000040
:10062000938E626B6251070813E3D8906337643787
:100630008A8C939C00D000D00000938E81AE01D0B4
:1006400063818A9C939C00D000D00000622BEAD783
:10065000938E00D000D000008A8C939C020E006E16
:10066000002EFED700D000008A9C939C63C001F04E
:1006700064C002F012000CDF030E626F55DF5F9062
:1006800001B05F805FB00AD084DF9FDF02C061F0FD
:1006900001C060F060C001F061C002F012008E0E77
:1006A000006E74C001F073C002F0036A015209E1E8
:1006B00002C001F0026A080E005E015202E1006A07
:1006C00008D0D89001BE04D0023601360006F9D712
:1006D000019E1200DDDE050E626F26DF5F9001B025
:1006E0005F805FB00AD055DF70DF02C061F001C0EB
:1006F00060F060C001F061C002F012007B51D8B41C
:1007000071D0006E7F51D8B46DD0002604E3810E05
:10071000002668E204D07F0E005E64E363E07CC0E4
:1007200083F08051831B7C8F808F7E518203F4CFB6
:1007300085F07D518103F4CF03F0F3CF84F0820381
:10074000F3508527F4508423000E03227E51810349
:10075000F3508527F4508423000E026A03220222FC
:100760007C518203F3508427F4500322000E0222AE
:100770007C518103F3500326F4500222000E016ADB
:1007800001227E518003F3508427F4500322000E8F
:10079000022201227D518003F3500326F4500222ED
:1007A000000E01227C518003F3500226F4500122F6
:1007B000002A01BE05D08437033602360136000612
:1007C000000E84AF0AD0032A02220122015005E163
:1007D000025003E1035001E1002A83BF018E83AF81
:1007E000019E04D0006A016A026A036A1200800E48
:1007F000D8B27C1B816B826B78C080F07C51801BEF
:100800007751D8B4DCD07F6F006E7B51D8B4E0D084
:100810007F5FD8B481D03DE37CC085F0858F7DC0FB
:1008200084F07EC083F0826BD89085338433833329
:1008300082337F2FF8D780AF03D08181DDD08191C3
:100840007F918189EA6A7A0EE96EE9D0819980BF49
:100850000AD07FA113D08533843383338233002AB7
:10086000D8B4C5D00BD085BF0CD0D8908237833791
:10087000843785370006D8B4BAD0F5D7818D6BD0D0
:10088000819D78C080F078AF02D0858FA9D0859FF8
:10089000A7D07BC07FF07BC000F077517F5F78C02E
:1008A00085F0858F79C084F07AC083F0826BD89010
:1008B00085338433833382337F2FF8D780AF03D0DF
:1008C00081839AD081937F91818BEA6A7E0EE96E53
:1008D000A6D0819B80BF0AD07FA113D085338433FB
:1008E00083338233002AD8B482D00BD085BF0CD09A
:1008F000D89082378337843785370006D8B477D0CD
:10090000F5D7818F28D0819F7CC080F07CAF02D04A
:10091000858F66D0859F64D07CC085F0858F7DC033
:1009200084F07EC083F080AF04D0859F818564D041
:100930008195826B7F91EA6A7A0EE96E70D080BFF2
:100940001CD078C080F07FA106D0853384338333F8
:100950008233002A4CE082AF0BD0832B09E1842B39
:1009600007E1852B05E1853384338333002A3FE09B
:1009700081BD86D781BFC7D71CD0800E851B85AFB0
:1009800004D03AD07CC080F00AD078C080F0855383
:1009900006E1845304E1835302E1006A21D085BF5C
:1009A00008D0D8908237833784378537002EF7D721
:1009B0001ED080AF02D0858F13D0859F11D07BC011
:1009C00000F07CC085F07DC084F07EC083F008D04C
:1009D00077C000F078C085F079C084F07AC083F0E9
:1009E00085C001F084C002F083C003F034D0006AF7
:1009F000016A026A036A2FD0826B831F841F851FDE
:100A0000821F822B05E1832B03E1842B01E1852BDF
:100A100081B115D781B356D781B58AD7B3D7EF50F7
:100A2000832705E3842B03E1852BD8B47F81ED5226
:100A3000EF50842703E3852BD8B47F81ED52EF502C
:100A4000EFBE01D0800A8527D8B07F8181B9FED65C
:100A500081BB3FD774D712000900F6CF54F0F7CF0F
:100A600055F0F5509EA8FED7AD6E54C0F6FF55C0A8
:100A7000F7FF532EF1D712005C50B6085C6E036A84
:100A80005DC060F05D8ED8905D325E325F320332C1
:100A90000232013200325C2EF6D760AF0BD0001E5E
:100AA000011E021E031E002AD8B4012AD8B4022A4D
:100AB000D8B4032ACAEF05F0D8B203D0EA6A650EAB
:100AC000E96E006A016A026A036A656B666B676BAE
:100AD000686B64516311621161112CE0200E696F23
:100AE000D8905D365E365F36603765376637673774
:100AF00068376451685D08E16351675D05E16251E3
:100B0000665D02E16151655D0FE36151655F6251B0
:100B1000D8A0623D665F6351D8A0633D675F6451B2
:100B2000D8A0643D685FD8800036013602360336AF
:100B3000692FD6D765C0EFFF66C0ECFF67C0ECFF3A
:100B400068C0ECFF1200E950546E5350566E19E025
:100B500052C07EF051C07DF050C07CF04FC07BF0A1
:100B6000826B816B200E806F820E7F6FC7DD03C0AA
:100B700052F002C051F001C050F000C04FF0562EAC
:100B8000E7D752C05FF051C05EF050C05DF04FC07B
:100B90005CF072D703C052F002C051F001C050F0B7
:100BA00000C04FF052AE0DD05406548A4F1E501E56
:100BB000511E521E4F2AD8B4502AD8B4512AD8B444
:100BC000522A3B0E5B6E9A0E5A6ECA0E596E586AC6
:100BD0000A0E566E5350D8B4542AD882EA6A4F0E81
:100BE000E96E52C060F051C05FF050C05EF04FC07F
:100BF0005DF05BC064F05AC063F059C062F058C049
:100C000061F05ADF015000520FE15328565C0CE0AE
:100C100054500CE00F0B565C01E03BE254BE39D05F
:100C200054BC04D0200E30D0200E541654AA0DD03F
:100C3000549A5350D8A454060050546E2D0E9EA8BA
:100C4000FED7AD6E5450006E546A5350565C0BE1A3
:100C50000050546E2E0E9EA8FED7AD6E5450006EFE
:100C6000200E5416000E300E54AA0ED0549A535033
:100C7000D8A454060050546E2D0E9EA8FED7AD6E1B
:100C80005450006E546A300E002600509EA8FED7C5
:100C9000AD6ED8925BC060F05AC05FF059C05EF094
:100CA00058C05DF0646B636B626B0A0E616F04DFAA
:100CB00003C05BF002C05AF001C059F000C058F008
:100CC000562E8BD71200616B606B5F6A5E6A5CC0E8
:100CD00063F05BC062F05D52D8B489D062C0E9FFB6
:100CE00063C0EAFF616B606B5F6AEFCF5EF06251D9
:100CF000D8B46307620762C0E9FF63C0EAFFEF5040
:100D0000666B656B646F006A00505E1264515F121F
:100D100065516013665161136251D8B4630762076D
:100D200062C0E9FF63C0EAFFEF50676B666B656BFB
:100D3000646F030E6417656B666B676B006A016A0C
:100D400000505E1201505F126451601365516113CF
:100D500062C0E9FF63C0EAFFEF50676B666B656BCB
:100D6000646FE00E6417656B666B676B006A6435D1
:100D7000016E6535026E6635036E01360236033646
:100D800001360236033601360236033601360236A4
:100D90000336E00E011600505E1201505F12025041
:100DA0006013035061136251D8B46307620762C0D5
:100DB000E9FF63C0EAFFEF50656B646F006A016A88
:100DC0006435026E6535036E02360336023603362D
:100DD0000236033602360336E00E021600505E126B
:100DE00001505F12025060130350611353D0020E82
:100DF000625F000E635B62C0E9FF63C0EAFFEF5011
:100E0000676B666B656B646FE00E6417656B666B92
:100E1000676B6731616F6631606F65315F6E64313A
:100E20005E6E613360335F325E32613360335F32F6
:100E30005E32613360335F325E32613360335F3222
:100E40005E32070E61176251D8B46307620762C051
:100E5000E9FF63C0EAFFEF50676B666B656B646F19
:100E60006435006E6535016E6635026E6735036E5A
:100E700000360136023603360036013602360336B6
:100E8000F80E001600505E1201505F1202506013FF
:100E9000035061135EC000F05FC001F060C002F05B
:100EA00061C003F0F4EF0AF05650016A555C03E2AA
:100EB00055C000F00CD0006A080E576E553600364B
:100EC0005650005CD8B0006E0136572EF7D712008E
:100ED000015053C055F0640E566EE6DF00C053F06B
:100EE0000150300E07E154A20DD054B60BD054B8C7
:100EF000200E03D0549654985480012601509EA889
:100F0000FED7AD6E53C055F00A0E566ECDDF00C051
:100F100053F00150300E06E154B609D054A007D06A
:100F200054B8200E012601509EA8FED7AD6E300E9B
:100F3000532653509EA8FED7AD6E1200E950556E51
:100F40003B0E5C6E9A0E5B6ECA0E5A6E596A0A0EA2
:100F5000576ED882EA6A510EE96E54C060F053C0F1
:100F60005FF052C05EF051C05DF05CC064F05BC0E9
:100F700063F05AC062F059C061F09EDD015000522A
:100F80000FE15750010A0CE055500BE00F0B575C76
:100F900001E00DE255BE0BD055BC03D0200E02D0AF
:100FA000556A300E002600509EA8FED7AD6ED8922E
:100FB0005CC060F05BC05FF05AC05EF059C05DF08D
:100FC000646B636B626B0A0E616F76DD03C05CF06D
:100FD00002C05BF001C05AF000C059F0572EB9D7DB
:100FE000120051BE10D00F0E006E503800160A0EBF
:100FF000005C03E2300E002602D051500026005063
:101000009EA8FED7AD6E0F0E50160A0E505C02E27F
:10101000300E02D0519E5150502650509EA8FED7FF
:10102000AD6E12000F0E5D6E660E5C6E0F0140B766
:1010300006D0F10E6F1408096F6E5E6A15D030B7D6
:1010400007D0F10E6F1406096F6E010E5E6E0CD0A4
:1010500020B707D0F10E6F1404096F6E020E5E6E9A
:1010600003D0000E016E3CD05850030B006EFC0EF6
:1010700060140010606E0F0E0001606F640E5F6EF2
:1010800054C064F053C063F052C062F051C061F0CC
:1010900059C065F02FEC01F057C065FF659C5AB050
:1010A000658C5B6A57505B5C14E255C0E9FF56C023
:1010B000EAFFEFCF61F05DC0EAFF5CC0E9FF61C00D
:1010C000EFFF5C2AD8B45D2A552AD8B4562A5B2A89
:1010D000E9D76086F10E6F146F6E010E016E0F017D
:1010E00000011DEF0CF0F86AD09E078EB886810EC5
:1010F000AF6E000EB06EA60EAC6E900EAB6EC15011
:10110000C00B0F09C16E196A1A6A3A6A396A386ADD
:101110001B0E376E3B903B82080E3C6E030E3D6EFD
:101120003E6A3E6A3E5007080BE3036A3E502F0FAB
:10113000E96E000E0320EA6E220EEF6E3E2AF2D711
:101140003FC02FF040C030F041C031F042C032F01B
:1011500043C033F044C034F045C035F046C036F0EB
:10116000BA0EF66E000EF76EF5EC00F0780E05097B
:10117000CA6E4F0ECB6EC7EF01F0C80E506E35EC45
:1011800002F08EEF02F00A0E506E35EC02F09D82F6
:10119000C00EF212DE0EF66E000EF76EF5EC00F0E9
:1011A0003BEC03F002C074F001C073F04FEC03F0AD
:1011B00003C04AF002C049F001C048F000C047F047
:1011C0006AEC03F002C074F001C073F04FEC03F05E
:1011D00003C04EF002C04DF001C04CF000C04BF017
:1011E000506A4F6A4E6A4D6A4C6A4B6A3BEC03F098
:1011F00002C050F001C04FF06AEC03F002C052F0A0
:1012000001C051F050C060F04FC05FF052C062F0BA
:1012100051C061F060C074F05FC073F04FEC03F038
:1012200003C06AF002C069F001C068F000C067F056
:1012300003C07EF002C07DF001C07CF000C07BF0F6
:101240000A0E826FD70E816F230E806F780E7F6F2C
:101250007EEC03F003C06AF002C069F001C068F0E0
:1012600000C067F0D88203C07AF002C079F001C0F4
:1012700078F000C077F07E6B7D6B200E7C6F840E63
:101280007B6FF7EC03F003C04AF002C049F001C0E5
:1012900048F000C047F062C074F061C073F04FECDA
:1012A00003F003C066F002C065F001C064F000C046
:1012B00063F066C07EF065C07DF064C07CF063C002
:1012C0007BF0540E826FE30E816F250E806F7A0ED5
:1012D0007F6F7EEC03F003C06AF002C069F001C0CA
:1012E00068F000C067F066C07EF065C07DF064C045
:1012F0007CF063C07BF066C082F065C081F064C0A2
:1013000080F063C07FF07EEC03F003C06EF002C09B
:101310006DF001C06CF000C06BF003C07EF002C045
:101320007DF001C07CF000C07BF0A20E826FE70E62
:10133000816F3B0E806F6C0E7F6F7EEC03F0D88266
:101340006AC07AF069C079F068C078F067C077F059
:1013500003C07EF002C07DF001C07CF000C07BF0D5
:10136000F7EC03F003C06AF002C069F001C068F056
:1013700000C067F0D88203C07AF002C079F001C0E3
:1013800078F000C077F07E6B7D6B7C6B810E7B6F9D
:10139000F7EC03F003C056F002C055F001C054F062
:1013A00000C053F0D8824AC07AF049C079F048C0F2
:1013B00078F047C077F07E6B7D6B480E7C6F830EB4
:1013C0007B6FF7EC03F003C06AF002C069F001C064
:1013D00068F000C067F0AC0E7E6FC50E7D6F270E03
:1013E0007C6F710E7B6F66C082F065C081F064C057
:1013F00080F063C07FF07EEC03F0D8920A0E7A6F23
:10140000D70E796F230E786F780E776F03C07EF05A
:1014100002C07DF001C07CF000C07BF0F7EC03F06F
:101420006AC07EF069C07DF068C07CF067C07BF068
:1014300003C082F002C081F001C080F000C07FF0E4
:101440007EEC03F003C06AF002C069F001C068F0EE
:1014500000C067F0D89203C07AF002C079F001C0F2
:1014600078F000C077F056C07EF055C07DF054C0D3
:101470007CF053C07BF0F7EC03F003C04EF002C0E9
:101480004DF001C04CF000C04BF00A0E506E35EC30
:1014900002F0EC0EF66E000EF76E160E536E2CEC8C
:1014A00005F0890EE96E4AC052F049C051F048C0BB
:1014B00050F047C04FF0020E536EA3EC05F0330E10
:1014C0009EA8FED7AD6E060EF66E010EF76E130ED9
:1014D000536E2CEC05F0890EE96E4EC052F04DC0F3
:1014E00051F04CC050F04BC04FF0020E536EA3ECC5
:1014F00005F0330E9EA8FED7AD6E4AC042F049C03B
:1015000041F048C040F047C03FF03FC02FF040C01E
:1015100030F041C031F042C032F04EC046F04DC014
:1015200045F04CC044F04BC043F043C033F044C0DE
:1015300034F045C035F046C036F00A0E506E35EC3A
:1015400002F060BE04D00F0150AF47D10001506AD5
:10155000260E4F6E60AE17D0F10E6F146F6E21988D
:10156000A490219074BE2180749E60A40BD0000EC4
:1015700060B0010E070B006ED8900036F10E2114FA
:101580000010216E1CD00F0150AF15D0F10E6F145A
:101590000A096F6E2188A492219074BC2180749CEA
:1015A0005051070B070B006ED8900036F10E211436
:1015B0000010216E03D0000E016E4BD0000165506B
:1015C0000F0B2E6E219A65BC218A219C62B6218C5C
:1015D000000E21BC010E546E0F0E5C6E640E5B6E2D
:1015E00054C05DF063EF06F003C025F002C024F0A4
:1015F00001C023F000C022F00F0E536E660E526E33
:10160000516A2E50515C14E252C0E9FF53C0EAFF08
:10161000EFCF56F050C0EAFF4FC0E9FF56C0EFFFD2
:101620004F2AD8B4502A522AD8B4532A512AE9D77B
:10163000F10E6F146F6E219EA4BE218EA49E21A870
:1016400004D00F01509F03D00001609E0F01010ED6
:10165000016E0152D8B4B9D0000E21B8010E4F6E00
:10166000000E21B0010E506E1E0EF66E010EF76ECA
:101670000C0E536E00012CEC05F04FC053F01B0E06
:10168000546E26DC2C0EF66E010EF76E040E536EB1
:101690002CEC05F0410EE96E25C054F024C053F047
:1016A00023C052F022C051F049DC330EF66E010E19
:1016B000F76E050E536E2CEC05F02EC053F01B0E8A
:1016C000546E06DC3A0EF66E010EF76E050E536E82
:1016D0002CEC05F050C053F01B0E546E68EC07F074
:1016E000200E9EA8FED7AD6E21C000F02130070B62
:1016F0004F6E000E21BA010E506E000E21BC010E7D
:10170000516E000E21BE010E526E440EF66E010E99
:10171000F76E050E536E2CEC05F04FC053F01B0E08
:10172000546E68EC07F04B0EF66E010EF76E050E68
:10173000536E2CEC05F050C053F01B0E546E68EC49
:1017400007F0520EF66E010EF76E050E536E2CEC7E
:1017500005F051C053F01B0E546E68EC07F0590EA3
:10176000F66E010EF76E050E536E2CEC05F052C0AE
:1017700053F01B0E546E68EC07F0620EF66E010E0D
:10178000F76EF5EC00F03E6A2E503E5C14E2036A00
:101790003E50260FE96E000E0320EA6EEFCF4FF0A9
:1017A0004FC050F0370E516E1CDC200E9EA8FED7A5
:1017B000AD6E3E2AE9D70D0E9EA8FED7AD6E0A0E7D
:1017C0009EA8FED7AD6E08D00F01700EF66E010E0A
:1017D000F76E0001F5EC00F00F0140A704D030A730
:1017E00002D020B702D120500608D8B0FED0FF0AA0
:1017F00004E11F50D008D8B0F8D0206A1F6A000E4C
:101800003BB2010E4F6E000E3BB0010E506E3AC05F
:1018100054F039C053F038C052F037C051F0566A16
:101820002F0E556E3CC057F03DC058F04FC059F0D8
:1018300050C05AF0000112EF08F001C03EF03E3CEB
:1018400001D0CCD0820EF66E010EF76E060E536EEE
:101850002CEC05F03EC053F01B0E546E68EC07F004
:101860008A0EF66E010EF76E050E536E2CEC05F027
:10187000410EE96E3AC054F039C053F038C052F00E
:1018800037C051F09EEC07F0920EF66E010EF76E27
:10189000050E536E2CEC05F03CC053F01B0E546E3D
:1018A00068EC07F0200E9EA8FED7AD6E000E3BB28E
:1018B000010E4F6E000E3BB0010E506E9C0EF66E88
:1018C000010EF76E040E536E2CEC05F03DC053F084
:1018D0001B0E546E68EC07F0A20EF66E010EF76E4A
:1018E000050E536E2CEC05F04FC053F01B0E546EDA
:1018F00068EC07F0A90EF66E010EF76E050E536E3A
:101900002CEC05F050C053F01B0E546E68EC07F041
:10191000B00EF66E010EF76E0C0E536E2CEC05F049
:101920003E6A3C503E5C1DE2036A3E502F0FE96E5A
:10193000000E0320EA6EEFCF4FF00D0E9EA8FED7EB
:10194000AD6E0A0E9EA8FED7AD6E4FC050F0370E9A
:10195000516EF1EC07F0200E9EA8FED7AD6E3E2A28
:10196000E0D70D0E9EA8FED7AD6E0A0E9EA8FED73C
:10197000AD6EBE0EF66E010EF76E060E536E2CECBB
:1019800005F03EC053F01B0E546E68EC07F0C60E17
:10199000F66E010EF76E050E536E2CEC05F0410E3F
:1019A000E96E3AC054F039C053F038C052F037C035
:1019B00051F09EEC07F0CE0EF66E010EF76E050E9E
:1019C000536E2CEC05F03CC053F01B0E546E68ECCB
:1019D00007F0200E9EA8FED7AD6E06D0D80EF66E8C
:1019E000010EF76EF5EC00F00F01020E4F6EFA0ECD
:1019F000506E000135EC02F04F2E01D002D00F01E5
:081A0000F6D7D0EF08F0030057
:020000040030CA
:0E00000000C21E1E008691000FC00FE00F40D0
:00000001FF
;PIC18F2480
;CRC=CA4D  CREATED="22-Thg11-17 10:31"
